{
  "_format": "hh-sol-artifact-1",
  "contractName": "P256Verifier",
  "sourceName": "contracts/P256Verifier.sol",
  "abi": [
    {
      "inputs": [],
      "stateMutability": "nonpayable",
      "type": "constructor"
    },
    {
      "inputs": [],
      "name": "name",
      "outputs": [
        {
          "internalType": "string",
          "name": "",
          "type": "string"
        }
      ],
      "stateMutability": "view",
      "type": "function"
    },
    {
      "inputs": [
        {
          "internalType": "bytes32",
          "name": "msghash",
          "type": "bytes32"
        },
        {
          "internalType": "bytes32",
          "name": "r",
          "type": "bytes32"
        },
        {
          "internalType": "bytes32",
          "name": "s",
          "type": "bytes32"
        },
        {
          "internalType": "bytes32",
          "name": "x",
          "type": "bytes32"
        },
        {
          "internalType": "bytes32",
          "name": "y",
          "type": "bytes32"
        }
      ],
      "name": "verify",
      "outputs": [],
      "stateMutability": "view",
      "type": "function"
    }
  ],
  "bytecode": "0x608060405234801561001057600080fd5b506040518060400160405280600c81526020017f50323536566572696669657200000000000000000000000000000000000000008152506000908161005591906102ab565b5061037d565b600081519050919050565b7f4e487b7100000000000000000000000000000000000000000000000000000000600052604160045260246000fd5b7f4e487b7100000000000000000000000000000000000000000000000000000000600052602260045260246000fd5b600060028204905060018216806100dc57607f821691505b6020821081036100ef576100ee610095565b5b50919050565b60008190508160005260206000209050919050565b60006020601f8301049050919050565b600082821b905092915050565b6000600883026101577fffffffffffffffffffffffffffffffffffffffffffffffffffffffffffffffff8261011a565b610161868361011a565b95508019841693508086168417925050509392505050565b6000819050919050565b6000819050919050565b60006101a86101a361019e84610179565b610183565b610179565b9050919050565b6000819050919050565b6101c28361018d565b6101d66101ce826101af565b848454610127565b825550505050565b600090565b6101eb6101de565b6101f68184846101b9565b505050565b5b8181101561021a5761020f6000826101e3565b6001810190506101fc565b5050565b601f82111561025f57610230816100f5565b6102398461010a565b81016020851015610248578190505b61025c6102548561010a565b8301826101fb565b50505b505050565b600082821c905092915050565b600061028260001984600802610264565b1980831691505092915050565b600061029b8383610271565b9150826002028217905092915050565b6102b48261005b565b67ffffffffffffffff8111156102cd576102cc610066565b5b6102d782546100c4565b6102e282828561021e565b600060209050601f8311600181146103155760008415610303578287015190505b61030d858261028f565b865550610375565b601f198416610323866100f5565b60005b8281101561034b57848901518255600182019150602085019450602081019050610326565b868310156103685784890151610364601f891682610271565b8355505b6001600288020188555050505b505050505050565b6105bf8061038c6000396000f3fe608060405234801561001057600080fd5b50600436106100365760003560e01c806306fdde031461003b5780637cd633d814610059575b600080fd5b610043610075565b60405161005091906102a4565b60405180910390f35b610073600480360381019061006e9190610301565b610103565b005b60008054610082906103ab565b80601f01602080910402602001604051908101604052809291908181526020018280546100ae906103ab565b80156100fb5780601f106100d0576101008083540402835291602001916100fb565b820191906000526020600020905b8154815290600101906020018083116100de57829003601f168201915b505050505081565b6000858585858560405160200161011e9594939291906103fd565b604051602081830303815290604052905060008061010073ffffffffffffffffffffffffffffffffffffffff168360405161015991906104a3565b600060405180830381855afa9150503d8060008114610194576040519150601f19603f3d011682016040523d82523d6000602084013e610199565b606091505b50915091508180156101ac575060208151145b80156101cb57506001818060200190518101906101c991906104f0565b145b61020a576040517f08c379a000000000000000000000000000000000000000000000000000000000815260040161020190610569565b60405180910390fd5b5050505050505050565b600081519050919050565b600082825260208201905092915050565b60005b8381101561024e578082015181840152602081019050610233565b60008484015250505050565b6000601f19601f8301169050919050565b600061027682610214565b610280818561021f565b9350610290818560208601610230565b6102998161025a565b840191505092915050565b600060208201905081810360008301526102be818461026b565b905092915050565b600080fd5b6000819050919050565b6102de816102cb565b81146102e957600080fd5b50565b6000813590506102fb816102d5565b92915050565b600080600080600060a0868803121561031d5761031c6102c6565b5b600061032b888289016102ec565b955050602061033c888289016102ec565b945050604061034d888289016102ec565b935050606061035e888289016102ec565b925050608061036f888289016102ec565b9150509295509295909350565b7f4e487b7100000000000000000000000000000000000000000000000000000000600052602260045260246000fd5b600060028204905060018216806103c357607f821691505b6020821081036103d6576103d561037c565b5b50919050565b6000819050919050565b6103f76103f2826102cb565b6103dc565b82525050565b600061040982886103e6565b60208201915061041982876103e6565b60208201915061042982866103e6565b60208201915061043982856103e6565b60208201915061044982846103e6565b6020820191508190509695505050505050565b600081519050919050565b600081905092915050565b600061047d8261045c565b6104878185610467565b9350610497818560208601610230565b80840191505092915050565b60006104af8284610472565b915081905092915050565b6000819050919050565b6104cd816104ba565b81146104d857600080fd5b50565b6000815190506104ea816104c4565b92915050565b600060208284031215610506576105056102c6565b5b6000610514848285016104db565b91505092915050565b7f566572696669636174696f6e206661696c656400000000000000000000000000600082015250565b600061055360138361021f565b915061055e8261051d565b602082019050919050565b6000602082019050818103600083015261058281610546565b905091905056fea264697066735822122029bd490b72d047c8fbe289005aa0a5fe67c5e38e32a116670017541781e99c5b64736f6c634300081c0033",
  "linkReferences": {},
  "deployedLinkReferences": {}
}